:100000009300803E1381007D930181C1138201839F
:100010009302823E1383027D930383C1138403837F
:100020009304843E1385047D930585C1138605835F
:100030009306863E1387067D930787C193A7004BDF
:100040001327014B930180C193A601B513A6C1C725
:1000500093B5004B1335014B9300F07F1301F07003
:100060009301000F93C7F0FF1347F1FF93C6F1FF11
:100070009300F07F1301F0709301000F93E7F0FFFE
:100080001367F1FF93E6F1FF13E6000093650100AB
:1000900013E501009300F07F1301F0709301000F4E
:1000A00093F7F0FF1377F1FF93F6F1FF13F6501576
:1000B0009375511513F551159300F07F9397000038
:1000C00013971000939620001396300093958000AC
:1000D000139500019394800113830400938004001E
:1000E00093D7000013D7100093D6200013D630000A
:1000F00093D5800013D5000193D4800193000300B1
:1001000093D7004013D7104093D6204013D63040E9
:1001100093D5804013D5004193D4804193000300D0
:10012000B387100033879000B306100093000300DC
:0C013000B387104033879040B3061040A6
:00000001FF
