:1000000013000000130000001300000013000000A4
:100010009307803E630A000013000000630AF000AB
:100020001300000063080000E30A00FE1300000054
:1000300013000000E31E00FE130000006318F00030
:1000400013000000E30800FE130000009300004BC3
:1000500013018057E34A11FE63C62000E30800FE47
:1000600013000000930080A8130100B5E34A11FEBD
:1000700063C62000E30800FE130000009300004B5D
:1000800013018057E3DA20FE63541100E30800FEF9
:100090009300004B1301004B63541100E30A00FE70
:1000A000930080A8130100B5E3D820FC635611002B
:1000B000E30800FE130000009300004B130180577B
:1000C000E36A11FE63E62000E30800FE130000006F
:1000D0009300004B13018057E3FA20FE6374110074
:0800E000E30800FE130000001C
:00000001FF
