:100000009300000C83A700001300000003D700003A
:1000100083D6100003D620001300000083C5000023
:1000200003C5100083C4200003C430001300000087
:100030009300400C839700000397100083962000E4
:100040001300000003860000838510000385200054
:1000500083843000130000009300400C03A60000CE
:10006000B7000100938000002380C0002392C000ED
:1000700023A4C0001300000023A0000023A200005E
:1000800023A4000023A800002380C000A382C00096
:100090002385C000A387C00023A8000023AA000076
:1000A00023AC00002398C000A39AC000239DC00089
:1000B00013000000130000001300000013000000F4
:1000C000EFBEADDE818283840000000000000000EE
:0400D000000000002C
:00000001FF
